:100000000EC028C027C026C025C024C023C022C0DF
:1000100021C020C020C01EC01DC01CC01BC0112498
:100020001FBECFE5D2E0DEBFCDBF10E0A0E6B0E05E
:10003000E6E5F4E002C005900D92A436B107D9F7C9
:1000400020E0A4E6B0E001C01D92AE37B207E1F7B0
:10005000BBD0FFC1D5CF1F920F920FB60F921124C4
:100060002F933F934F935F936F937F938F939F93C0
:10007000AF93BF93EF93FF938091600090916100E5
:10008000A0916200B09163000196A11DB11D809303
:10009000600090936100A0936200B09363000B979F
:1000A000A105B1050CF47FC01092600010926100B0
:1000B00010926200109263004091640050916500BC
:1000C000609166007091670081E090E0A0E0B0E090
:1000D000452B462B472B19F080E090E0DC01809304
:1000E000640090936500A0936600B0936700C39A84
:1000F00025E32A95F1F70000C3988CE291E0A0E097
:10010000B0E0B2990CC00097A105B10541F025E01F
:100110002A95F1F700000197A109B109F2CF892BC7
:100120008A2B8B2B79F0C19A60E070E0CB01B29BF7
:100130001DC025E02A95F1F700006F5F7F4F8F4FBC
:100140009F4FF5CFECE6F0E0118210828FEF8283B3
:10015000339680E0EB37F807B9F765E070E08CE69E
:1001600090E00CD160E070E0CB010FC06B3224E472
:1001700072078105910548F010926800109269009D
:1001800010926A0010926B000DC02AE330E040E04C
:1001900050E029D1209368003093690040936A00B1
:1001A00050936B00C198FF91EF91BF91AF919F91D8
:1001B0008F917F916F915F914F913F912F910F9010
:1001C0000FBE0F901F901895BA98C298B99ABB9A13
:1001D0008AB582608ABD83B7856083BF80EA89BDA6
:1001E00089B7806189BF7894809168009091690097
:1001F000A0916A00B0916B009C01215031092C3212
:10020000314080F0ECE6F0E01182108212823396E9
:1002100050E0EB37F507C1F765E070E08CE690E061
:10022000ADD0E2CF8A3191051CF5809164009091A8
:100230006500A0916600B0916700ECE6F0E0892BC4
:100240008A2B8B2B51F08BE790E011821082128267
:1002500033968E179F07C9F7DFCF8BE790E02FEF1C
:1002600021831082128233968E179F07C1F7D4CF55
:10027000853691054CF524E630E0A901481B590B61
:10028000CA016FE070E09CD0CB01ECE6F0E020E02A
:1002900030E04FEF4183108212822F5F3F4F339641
:1002A00082179307B4F763E070E079D0FC01E4595A
:1002B000FF4F8BE790E033968E179F0709F4ACCF82
:1002C000118210821282F7CF8456910968E270E0A1
:1002D00077D06F5F7F4FECE6F0E080E090E09B012D
:1002E0003327821793073CF411822FEF2083128269
:1002F00001963396F4CFC90163E070E050D0FC0161
:10030000E459FF4F253031050CF086CF1182108261
:1003100012822F5F3F4F3396F5CF27B3242B27BB95
:1003200028B3342F3095232338B3432B3FB7F894A9
:10033000FC01680F791FE617F70789F0819198E0B3
:1003400048BB000000C087FF28BB880F000000C02A
:1003500000C000C028BB00C09A9591F7ECCF3FBF0A
:1003600008959B01220F331F620F731FD6DF8FEAA0
:1003700094E00197F1F700C00000089540E1F1CF4B
:10038000660F771F660F771F40E1C7DF8FEA94E0A3
:100390000197F1F700C00000089540E1BECF0024AE
:1003A000552704C0080E591F880F991F009729F080
:1003B00076956795B8F37105B9F7802D952F089557
:1003C00097FB072E16F4009406D077FD08D02DD0A9
:1003D00007FC05D03EF4909581959F4F0895709548
:1003E00061957F4F0895A1E21A2EAA1BBB1BFD0148
:1003F0000DC0AA1FBB1FEE1FFF1FA217B307E40704
:10040000F50720F0A21BB30BE40BF50B661F771F5B
:10041000881F991F1A9469F760957095809590953B
:100420009B01AC01BD01CF010895AA1BBB1B51E18B
:1004300007C0AA1FBB1FA617B70710F0A61BB70B54
:10044000881F991F5A95A9F780959095BC01CD01F9
:060450000895F894FFCFAF
:040456000A00000098
:00000001FF
