:100000000EC01DC072C02BC01AC019C018C017C0C6
:1000100016C015C0CEC013C012C011C010C011242C
:100020001FBECFE5D2E0DEBFCDBF20E0A0E6B0E04E
:1000300001C01D92A438B207E1F725D121C2E0CF5B
:10004000E2E7F0E0118210821282339680E0E1381C
:10005000F807C1F765E070E082E790E0C8C11F9241
:100060000F920FB60F9211244F935F936F937F936C
:100070008F939F93AF93BF93C39A80916E0090919B
:100080006F00A0917000B091710080936A0090930E
:100090006B00A0936C00B0936D0040916000509194
:1000A0006100609162007091630081E090E0A0E0E7
:1000B000B0E0452B462B472B19F080E090E0DC01A7
:1000C0008093600090936100A0936200B0936300FE
:1000D000BF91AF919F918F917F916F915F914F9160
:1000E0000F900FBE0F901F9018951F920F920FB692
:1000F0000F9211242F934F935F936F937F938F935E
:100100009F93AF93BF938091660090916700A091F9
:100110006800B0916900892B8A2B8B2B91F4809118
:100120006E0090916F00A0917000B091710080936B
:10013000660090936700A0936800B0936900C19A2D
:100140002AC080916E0090916F00A0917000B091D4
:100150007100409166005091670060916800709155
:100160006900841B950B90936500809364008091D7
:100170006400909165008D32914024F010926500EA
:1001800010926400C198109266001092670010925D
:10019000680010926900BF91AF919F918F917F91FC
:1001A0006F915F914F912F910F900FBE0F901F9005
:1001B00018951F920F920FB60F9211244F935F93D1
:1001C0006F937F938F939F93AF93BF9380916E00B4
:1001D00090916F00A0917000B09171000196A11DE7
:1001E000B11D80936E0090936F00A0937000B09348
:1001F000710040916E0050916F006091700070919D
:10020000710080916A0090916B00A0916C00B09198
:100210006D00481759076A077B0749F010926A007A
:1002200010926B0010926C0010926D00C398BF91F9
:10023000AF919F918F917F916F915F914F910F90AF
:100240000FBE0F901F9018958AB582608ABD83B744
:10025000826083BF84E789BD89B7806189BF1FBC85
:1002600010BE80B7806880BF83EC8DBD8DB58EBD1C
:1002700080B78E6080BF89B7806489BF8BB780628A
:100280008BBFAA9A0895BA98C298B99ABB9ADCDF34
:10029000789480916400909165009C01215031090F
:1002A0002C32314010F0CCDEF4CF8A319105F4F4D9
:1002B0008091600090916100A0916200B091630014
:1002C000892B8A2B8B2B79F7E2E7F0E081E890E02D
:1002D0002FEF21831082128233968E179F07C1F76A
:1002E00065E070E082E790E082D0D3CF853691055B
:1002F00044F524E630E0A901481B590BCA016FE020
:1003000070E097D0CB01E2E7F0E020E030E04FEF83
:100310004183108212822F5F3F4F339682179307DB
:10032000B4F763E070E074D0FC01EE58FF4F81E851
:1003300090E033968E179F0799F2118210821282F5
:10034000F8CF8456910968E270E073D0E2E7F0E0FC
:1003500080E090E011822FEF208312820196339685
:1003600068177907BCF79B01CB0163E070E050D0C0
:10037000FC01EE58FF4F2F5F3F4F3396253031057C
:1003800008F0AECF118210821282F5CF27B3242B52
:1003900027BB28B3342F3095232338B3432B3FB7E3
:1003A000F894FC01680F791FE617F70789F081912F
:1003B00098E048BB000000C087FF28BB880F000002
:1003C00000C000C000C028BB00C09A9591F7ECCFD8
:1003D0003FBF08959B01220F331F620F731FD6DFAB
:1003E0008FEA94E00197F1F700C00000089540E122
:1003F000F1CF660F771F660F771F40E1C7DF8FEAE7
:1004000094E00197F1F700C00000089540E1BECFED
:100410000024552704C0080E591F880F991F009704
:1004200029F076956795B8F37105B9F7802D952F6A
:10043000089597FB072E16F4009406D077FD08D098
:100440000BD007FC05D03EF4909581959F4F089501
:10045000709561957F4F0895AA1BBB1B51E107C0A2
:10046000AA1FBB1FA617B70710F0A61BB70B881F44
:10047000991F5A95A9F780959095BC01CD010895D3
:04048000F894FFCF1E
:00000001FF
