:100000000EC01DC01CC01CC01AC019C018C017C02B
:1000100016C015C014C013C012C011C010C01124E6
:100020001FBECFE5D2E0DEBFCDBF20E0A0E6B0E04E
:1000300001C01D92AA37B207E1F7ABD0E5C1E0CF0E
:100040001F920F920FB60F9211242F933F934F934D
:100050005F936F937F938F939F93AF93BF93EF9330
:10006000FF93409160005091610060916200709137
:10007000630081E090E0A0E0B0E0452B462B472BE9
:1000800019F080E090E0DC018093600090936100C3
:10009000A0936200B0936300C39A25E32A95F1F719
:1000A0000000C3988CE291E0A0E0B0E0B2990CC0EF
:1000B0000097A105B10541F025E02A95F1F7000070
:1000C0000197A109B109F2CF892B8A2B8B2B79F0EB
:1000D000C19A60E070E0CB01B29B1DC025E02A957B
:1000E000F1F700006F5F7F4F8F4F9F4FF5CFE8E62E
:1000F000F0E0118210828FEF8283339680E0E73741
:10010000F807B9F765E070E088E690E012D160E0AA
:1001100070E0CB010FC06B3224E4720781059105BA
:1001200048F01092640010926500109266001092E0
:1001300067000DC02AE330E040E050E02FD120936B
:100140006400309365004093660050936700C19847
:10015000FF91EF91BF91AF919F918F917F916F919F
:100160005F914F913F912F910F900FBE0F901F9075
:1001700018951FBC10BE80B7806880BF83EC8DBD12
:100180008DB58EBD80B78E6080BF89B7806489BF12
:100190000895BA98C298B99ABB9AEBDF7894809187
:1001A000640090916500A0916600B09167009C0189
:1001B000215031092C32314080F0E8E6F0E0118224
:1001C00010821282339650E0E737F507C1F765E0F9
:1001D00070E088E690E0ADD0E2CF8A3191051CF561
:1001E0008091600090916100A0916200B0916300E5
:1001F000E8E6F0E0892B8A2B8B2B51F087E790E023
:1002000011821082128233968E179F07C9F7DFCFB3
:1002100087E790E02FEF21831082128233968E17AA
:100220009F07C1F7D4CF853691054CF524E630E021
:10023000A901481B590BCA016FE070E09CD0CB01AB
:10024000E8E6F0E020E030E04FEF418310821282D8
:100250002F5F3F4F339682179307B4F763E070E048
:1002600079D0FC01E859FF4F87E790E033968E176D
:100270009F0709F4ACCF118210821282F7CF845607
:10028000910968E270E077D06F5F7F4FE8E6F0E0B9
:1002900080E090E09B013327821793073CF41182A2
:1002A0002FEF2083128201963396F4CFC90163E0C9
:1002B00070E050D0FC01E859FF4F253031050CF0BB
:1002C00086CF1182108212822F5F3F4F3396F5CF77
:1002D00027B3242B27BB28B3342F3095232338B3DF
:1002E000432B3FB7F894FC01680F791FE617F70717
:1002F00089F0819198E048BB000000C087FF28BBCF
:10030000880F000000C000C000C028BB00C09A9544
:1003100091F7ECCF3FBF08959B01220F331F620F6F
:10032000731FD6DF8FEA94E00197F1F700C0000059
:10033000089540E1F1CF660F771F660F771F40E108
:10034000C7DF8FEA94E00197F1F700C0000008953D
:1003500040E1BECF0024552704C0080E591F880F66
:10036000991F009729F076956795B8F37105B9F74D
:10037000802D952F089597FB072E16F4009406D034
:1003800077FD08D02DD007FC05D03EF490958195DF
:100390009F4F0895709561957F4F0895A1E21A2EA1
:1003A000AA1BBB1BFD010DC0AA1FBB1FEE1FFF1F19
:1003B000A217B307E407F50720F0A21BB30BE40B69
:1003C000F50B661F771F881F991F1A9469F76095B0
:1003D0007095809590959B01AC01BD01CF0108956A
:1003E000AA1BBB1B51E107C0AA1FBB1FA617B7075B
:1003F00010F0A61BB70B881F991F5A95A9F7809577
:0C0400009095BC01CD010895F894FFCF49
:00000001FF
