:100000000EC028C027C026C025C024C023C022C0DF
:1000100021C020C03CC01EC01DC01CC01BC011247C
:100020001FBECFE5D2E0DEBFCDBF10E0A0E6B0E05E
:10003000E2E5F4E002C005900D92AA36B107D9F7C7
:1000400020E0AAE6B0E001C01D92A438B207E1F7B3
:10005000CED0FDC1D5CF7695769566956695869579
:100060008695E2E7F0E0718360838283339690E0C7
:10007000E138F907C1F765E070E082E790E07CC104
:10008000609167007091680080916900E4CF1F92D1
:100090000F920FB60F9211242F933F934F935F93BC
:1000A0006F937F938F939F93AF93BF93EF93FF9340
:1000B0008091600090916100A0916200B091630016
:1000C0000196A11DB11D8093600090936100A093E3
:1000D0006200B09363000B97A105B1050CF476C0E4
:1000E0001092600010926100109262001092630002
:1000F00040916A0050916B0060916C0070916D00AE
:1001000081E090E0A0E0B0E0452B462B472B19F0B2
:1001100080E090E0DC0180936A0090936B00A093F4
:100120006C00B0936D00C39A25E32A95F1F70000A7
:10013000C3988CE291E0A0E0B0E0B2990CC00097C7
:10014000A105B10541F025E02A95F1F700000197DE
:10015000A109B109F2CF892B8A2B8B2B79F0C19A97
:1001600060E070E0CB01B29B14C025E02A95F1F766
:1001700000006F5F7F4F8F4F9F4FF5CF60916400FE
:10018000709165008091660066DF60E070E0CB01F1
:100190000FC06B3224E472078105910548F010927C
:1001A0006E0010926F0010927000109271000DC0DE
:1001B0002AE330E040E050E014D120936E00309309
:1001C0006F004093700050937100C198FF91EF91C0
:1001D000BF91AF919F918F917F916F915F914F915F
:1001E0003F912F910F900FBE0F901F901895BA98C6
:1001F000C298B99ABB9A8AB582608ABD83B7856076
:1002000083BF80EA89BD89B7806189BF7894809176
:100210006E0090916F00A0917000B09171009C01F0
:10022000215031092C32314010F02ADFF0CF8A31D1
:100230009105F4F480916A0090916B00A0916C009C
:10024000B0916D00892B8A2B8B2B79F7E2E7F0E0D8
:1002500081E890E02FE321831082128233968E177B
:100260009F07C1F765E070E082E790E085D0CFCFCF
:10027000853691053CF524E630E0A901481B590B71
:10028000CA016FE070E09AD0CB01E2E7F0E020E035
:1002900030E04FE34183108212822F5F3F4F33964D
:1002A00082179307B4F763E070E077D0FC01EE5853
:1002B000FF4F339650E0E138F507A1F2118210822A
:1002C0001282F7CF8456910968E270E077D06F5FB1
:1002D0007F4FE2E7F0E080E090E09B013327821758
:1002E00093073CF411822FE3208312820196339608
:1002F000F4CFC90163E070E050D0FC01EE58FF4F2D
:10030000253031050CF0AECF1182108212822F5FA2
:100310003F4F3396F5CF27B3242B27BB28B3342F79
:100320003095232338B3432B3FB7F894FC01680F73
:10033000791FE617F70789F0819198E048BB000024
:1003400000C087FF28BB880F000000C000C000C0AD
:1003500028BB00C09A9591F7ECCF3FBF08959B0151
:10036000220F331F620F731FD6DF8FEA94E00197CD
:10037000F1F700C00000089540E1F1CF660F771F4C
:10038000660F771F40E1C7DF8FEA94E00197F1F72E
:1003900000C00000089540E1BECF0024552704C0EE
:1003A000080E591F880F991F009729F076956795B9
:1003B000B8F37105B9F7802D952F089597FB072E97
:1003C00016F4009406D077FD08D02DD007FC05D098
:1003D0003EF4909581959F4F0895709561957F4F5C
:1003E0000895A1E21A2EAA1BBB1BFD010DC0AA1F76
:1003F000BB1FEE1FFF1FA217B307E407F50720F08E
:10040000A21BB30BE40BF50B661F771F881F991F08
:100410001A9469F760957095809590959B01AC0151
:10042000BD01CF010895AA1BBB1B51E107C0AA1F44
:10043000BB1FA617B70710F0A61BB70B881F991F85
:100440005A95A9F780959095BC01CD010895F8942F
:02045000FFCFDC
:0A0452000A0000000000FF00000097
:00000001FF
