:100000000EC028C027C026C025C024C023C022C0DF
:1000100021C020C01FC01EC01DC01CC01BC0112499
:100020001FBECFE5D2E0DEBFCDBF10E0A0E6B0E05E
:10003000E8E7F1E002C005900D92AA36B107D9F7C2
:1000400020E0AAE6B0E001C01D92A937B207E1F7AF
:1000500020D090C0D5CF869566954695EAE6F0E02B
:10006000818360834283339690E0E937F907C1F7D3
:100070000895F1DF65E070E08AE690E06AC0482FFD
:10008000872FF7CF609166007091670080916800BC
:10009000F6CF609163007091640080916500EFDF9E
:1000A0008FE99FE00197F1F700C00000EBDF9FEFC1
:1000B00021EE84E0915020408040E1F700C0000034
:1000C000609160007091610080916200D8DF8FE9DB
:1000D0009FE00197F1F700C00000D4DF9FEF28ED0B
:1000E0008BE2915020408040E1F700C00000D1CF6A
:1000F00027B3242B27BB28B3342F3095232338B3C1
:10010000432B3FB7F894FC01680F791FE617F707F8
:1001100089F0819198E048BB000000C087FF28BBB0
:10012000880F000000C000C000C028BB00C09A9526
:1001300091F7ECCF3FBF08959B01220F331F620F51
:10014000731FD6DF8FEA94E00197F1F700C000003B
:10015000089540E1F1CF660F771F660F771F40E1EA
:10016000C7DF8FEA94E00197F1F700C0000008951F
:0801700040E1BECFF894FFCF7F
:0A0178000000FF00FF00000000007F
:00000001FF
