:100000000EC028C027C026C025C024C023C022C0DF
:1000100021C020C075C01EC01DC01CC01BC0112443
:100020001FBECFE5D2E0DEBFCDBF10E0A0E6B0E05E
:10003000ECE2F4E002C005900D92A436B107D9F7C6
:1000400020E0A4E6B0E001C01D92A438B207E1F7B9
:10005000FCD0EAC1D5CF27B3242B27BB28B3342F3C
:100060003095232338B3432B3FB7F894FC01680F36
:10007000791FE617F70789F0819198E048BB0000E7
:1000800000C087FF28BB880F000000C000C000C070
:1000900028BB00C09A9591F7ECCF3FBF08959B0114
:1000A000220F331F620F731FD6DF8FEA94E0019790
:1000B000F1F700C00000089544E0F1CFE2E7F0E07E
:1000C000718360838283339690E0E138F907C1F74A
:1000D00065E070E082E790E0EFCF811107C06091AA
:1000E00060007091610080916200E8CF089593B73D
:1000F000987F93BF12BE69BD93B7892B83BF0895C4
:100100001F920F920FB60F9211242F933F934F938C
:100110005F936F937F938F939F93AF93BF93CF938F
:10012000EF93FF93809171008130B1F1C8F082307C
:1001300009F448C0833009F076C010926B00109229
:100140006A00109269001092680010926D0010927F
:100150006C008FEF9FEF90936F0080936E005EC0F6
:1001600080916800909169000A9750F0C1E0C093B7
:100170007000C39A64E782E0BADFC093710053C095
:1001800010927000809168009091690001969093A0
:1001900069008093680047C0C398B29911C08091EC
:1001A0006A0090916B0085309240A0F580916A00C2
:1001B00090916B00019690936B0080936A0033C01E
:1001C00082E029C0B19A80916C0090916D000196F7
:1001D00090936D0080936C0080916C0090916D0005
:1001E00085309240B8F4B2991EC080916C00909115
:1001F0006D0090936F0080936E0010926B001092D0
:100200006A00109269001092680010926D001092BE
:100210006C0004C083E08093710005C060EA85E053
:1002200066DF10927100FF91EF91CF91BF91AF9176
:100230009F918F917F916F915F914F913F912F91FE
:100240000F900FBE0F901F90189510926B00109298
:100250006A0010927100109269001092680010926A
:100260006D0010926C008FEF9FEF90936F00809362
:100270006E00BA98C298B99AC198BB9A8AB5826042
:100280008ABD89B7806189BF60EA85E030DF7894F4
:1002900008E210E077247A9484E6E82EF12C9FE0BF
:1002A000C92ED12CC1E8D0E0812C912C540183942B
:1002B00080916E0090916F009C01215031092C3289
:1002C000314000F58A319105E0F58FEF91EE24E0A1
:1002D000815090402040E1F700C000008091640010
:1002E00090916500A0916600B0916700892B8A2BE0
:1002F0008B2B61F0109264001092650010926600E2
:100300001092670080917000E8DED2CF8092640086
:1003100090926500A0926600B09267008091700094
:100320008111C6CFE2E7F0E071821082128233962B
:10033000CE17DF07C9F765E070E082E790E0BCDE2A
:10034000B7CF209170008536910520F52111B0CFEF
:100350009701281B390BC901B60152D0CB01E2E746
:10036000F0E020E030E07182108212822F5F3F4F78
:10037000339682179307BCF763E070E030D0FC013E
:10038000EE58FF4F3396CE17DF07A9F21182108285
:100390001282F8CF21118CCF84569109B80130D048
:1003A0009B01E2E7F0E080E090E01182708212822F
:1003B0000196339628173907C4F7C90163E070E046
:1003C0000ED0FC01EE58FF4F2F5F3F4F3396253084
:1003D000310508F0B0CF118210821282F5CF0024CF
:1003E000552704C0080E591F880F991F009729F040
:1003F00076956795B8F37105B9F7802D952F089517
:10040000AA1BBB1B51E107C0AA1FBB1FA617B7073A
:1004100010F0A61BB70B881F991F5A95A9F7809556
:0C0420009095BC01CD010895F894FFCF29
:04042C0000000000CC
:00000001FF
